{
  "contractName": "PiggyBank",
  "abi": [
    {
      "inputs": [],
      "payable": false,
      "stateMutability": "nonpayable",
      "type": "constructor"
    },
    {
      "anonymous": false,
      "inputs": [
        {
          "indexed": true,
          "internalType": "address",
          "name": "from",
          "type": "address"
        },
        {
          "indexed": false,
          "internalType": "uint256",
          "name": "value",
          "type": "uint256"
        }
      ],
      "name": "FundsDeposited",
      "type": "event"
    },
    {
      "anonymous": false,
      "inputs": [
        {
          "indexed": false,
          "internalType": "uint256",
          "name": "value",
          "type": "uint256"
        }
      ],
      "name": "FundsWithdrawed",
      "type": "event"
    },
    {
      "constant": true,
      "inputs": [],
      "name": "name",
      "outputs": [
        {
          "internalType": "string",
          "name": "",
          "type": "string"
        }
      ],
      "payable": false,
      "stateMutability": "view",
      "type": "function"
    },
    {
      "constant": true,
      "inputs": [],
      "name": "owner",
      "outputs": [
        {
          "internalType": "address payable",
          "name": "",
          "type": "address"
        }
      ],
      "payable": false,
      "stateMutability": "view",
      "type": "function"
    },
    {
      "constant": false,
      "inputs": [],
      "name": "deposit",
      "outputs": [],
      "payable": true,
      "stateMutability": "payable",
      "type": "function"
    },
    {
      "constant": false,
      "inputs": [],
      "name": "withdraw",
      "outputs": [],
      "payable": false,
      "stateMutability": "nonpayable",
      "type": "function"
    }
  ],
  "bytecode": "0x608060405234801561001057600080fd5b506040518060400160405280601981526020017f457468657265756d2062617365642050696767792042616e6b000000000000008152506000908051906020019061005c9291906100a3565b5033600160006101000a81548173ffffffffffffffffffffffffffffffffffffffff021916908373ffffffffffffffffffffffffffffffffffffffff160217905550610148565b828054600181600116156101000203166002900490600052602060002090601f016020900481019282601f106100e457805160ff1916838001178555610112565b82800160010185558215610112579182015b828111156101115782518255916020019190600101906100f6565b5b50905061011f9190610123565b5090565b61014591905b80821115610141576000816000905550600101610129565b5090565b90565b610391806101576000396000f3fe60806040526004361061003f5760003560e01c806306fdde03146100445780633ccfd60b146100d45780638da5cb5b146100eb578063d0e30db014610142575b600080fd5b34801561005057600080fd5b5061005961014c565b6040518080602001828103825283818151815260200191508051906020019080838360005b8381101561009957808201518184015260208101905061007e565b50505050905090810190601f1680156100c65780820380516001836020036101000a031916815260200191505b509250505060405180910390f35b3480156100e057600080fd5b506100e96101ea565b005b3480156100f757600080fd5b506101006102e6565b604051808273ffffffffffffffffffffffffffffffffffffffff1673ffffffffffffffffffffffffffffffffffffffff16815260200191505060405180910390f35b61014a61030c565b005b60008054600181600116156101000203166002900480601f0160208091040260200160405190810160405280929190818152602001828054600181600116156101000203166002900480156101e25780601f106101b7576101008083540402835291602001916101e2565b820191906000526020600020905b8154815290600101906020018083116101c557829003601f168201915b505050505081565b600160009054906101000a900473ffffffffffffffffffffffffffffffffffffffff1673ffffffffffffffffffffffffffffffffffffffff163373ffffffffffffffffffffffffffffffffffffffff161461024457600080fd5b600160009054906101000a900473ffffffffffffffffffffffffffffffffffffffff1673ffffffffffffffffffffffffffffffffffffffff166108fc479081150290604051600060405180830381858888f193505050501580156102ac573d6000803e3d6000fd5b507f52e174983257f2fd1e3b62cc7654880dc728a2e843ef321a751266081588c1cb476040518082815260200191505060405180910390a1565b600160009054906101000a900473ffffffffffffffffffffffffffffffffffffffff1681565b3373ffffffffffffffffffffffffffffffffffffffff167f543ba50a5eec5e6178218e364b1d0f396157b3c8fa278522c2cb7fd99407d474346040518082815260200191505060405180910390a256fea265627a7a72315820a14699c05d3c0fb55a683f0d239aa859885e903878b19f603854c54d003fdd3364736f6c63430005100032",
  "source": "pragma solidity ^0.5.0;\n\ncontract PiggyBank {\n    string public name;\n    address payable public owner;\n\n    modifier isOwner() {\n        require(msg.sender == owner);\n        _;\n    }\n\n    event FundsDeposited(address indexed from, uint256 value);\n\n    event FundsWithdrawed(uint256 value);\n\n    constructor() public {\n        name = 'Ethereum based Piggy Bank';\n        owner = msg.sender;\n    }\n\n    //Transfer funds to piggy bank\n    function deposit() public payable {\n        emit FundsDeposited(msg.sender, msg.value);\n    }\n\n    // Withdraw the balance only for the owner\n    function withdraw() public isOwner {\n        owner.transfer(address(this).balance);\n        emit FundsWithdrawed(address(this).balance);\n    }\n}\n",
  "sourcePath": "/Users/davidcarvajal/Development/Personal/Ethereum/piggy-bank/src/contracts/PiggyBank.sol",
  "compiler": {
    "name": "solc",
    "version": "0.5.16+commit.9c3226ce.Emscripten.clang"
  },
  "schemaVersion": "3.3.4",
  "updatedAt": "2021-02-18T20:37:10.163Z",
  "networkType": "ethereum",
  "devdoc": {
    "methods": {}
  },
  "userdoc": {
    "methods": {}
  }
}